{
  "transactions": [
    {
      "hash": "0xb3df979f91d6eda05db22d942045d4863475570246f8db33e445319bbbbc556d",
      "transactionType": "CALL",
      "contractName": null,
      "contractAddress": "0xeb062fb2c45f82ddba2873553b5c023068308488",
      "function": "mintNft(string)",
      "arguments": [
        "ipfs://bafybeig37ioir76s7mg5oobetncojcm3c3hxasyd4rvid4jqhy4gkaheg4/?filename=0-PUG.json"
      ],
      "transaction": {
        "from": "0x783844525eb718bcdcead8a166e03fe3d8338b1d",
        "to": "0xeb062fb2c45f82ddba2873553b5c023068308488",
        "gas": "0x3d627",
        "value": "0x0",
        "input": "0xda86f4a900000000000000000000000000000000000000000000000000000000000000200000000000000000000000000000000000000000000000000000000000000057697066733a2f2f62616679626569673337696f6972373673376d67356f6f6265746e636f6a636d3363336878617379643472766964346a71687934676b61686567342f3f66696c656e616d653d302d5055472e6a736f6e000000000000000000",
        "nonce": "0x4d",
        "chainId": "0xaa36a7"
      },
      "additionalContracts": [],
      "isFixedGasLimit": false
    }
  ],
  "receipts": [
    {
      "status": "0x1",
      "cumulativeGasUsed": "0x94b1e2",
      "logs": [
        {
          "address": "0xeb062fb2c45f82ddba2873553b5c023068308488",
          "topics": [
            "0xddf252ad1be2c89b69c2b068fc378daa952ba7f163c4a11628f55a4df523b3ef",
            "0x0000000000000000000000000000000000000000000000000000000000000000",
            "0x000000000000000000000000783844525eb718bcdcead8a166e03fe3d8338b1d",
            "0x0000000000000000000000000000000000000000000000000000000000000000"
          ],
          "data": "0x",
          "blockHash": "0x1686b3d5647d2dc08b53b85ea14d4ece401ce6aac22354a5aac7759919e83163",
          "blockNumber": "0x6f56af",
          "transactionHash": "0xb3df979f91d6eda05db22d942045d4863475570246f8db33e445319bbbbc556d",
          "transactionIndex": "0x62",
          "logIndex": "0x10d",
          "removed": false
        }
      ],
      "logsBloom": "0x00000000000000000000000000000000000000000000002000100000000000000000000000000000000000000000000000000400000000000000000000000000000000000000000000000008000000000000001000000000000000000000000000000000020000000000000000000800000000000000000000000010000000010000000002000000000000000000000000000000000000000000000000000000000000000000000000000000000000000000000000000000000000000000000000000002000000000000000000000000000000000000000000000000000020000000000000000000000000000000000000000000000000000000000000000000",
      "type": "0x2",
      "transactionHash": "0xb3df979f91d6eda05db22d942045d4863475570246f8db33e445319bbbbc556d",
      "transactionIndex": "0x62",
      "blockHash": "0x1686b3d5647d2dc08b53b85ea14d4ece401ce6aac22354a5aac7759919e83163",
      "blockNumber": "0x6f56af",
      "gasUsed": "0x2c710",
      "effectiveGasPrice": "0x83535f6f8",
      "from": "0x783844525eb718bcdcead8a166e03fe3d8338b1d",
      "to": "0xeb062fb2c45f82ddba2873553b5c023068308488",
      "contractAddress": null
    }
  ],
  "libraries": [],
  "pending": [],
  "returns": {},
  "timestamp": 1734426871,
  "chain": 11155111,
  "commit": "4977a22"
}